{
  "contractName": "EnergyToken",
  "abi": [
    {
      "inputs": [
        {
          "internalType": "string",
          "name": "_name",
          "type": "string"
        },
        {
          "internalType": "string",
          "name": "_symbol",
          "type": "string"
        }
      ],
      "stateMutability": "nonpayable",
      "type": "constructor"
    },
    {
      "anonymous": false,
      "inputs": [
        {
          "indexed": true,
          "internalType": "address",
          "name": "owner",
          "type": "address"
        },
        {
          "indexed": true,
          "internalType": "address",
          "name": "approved",
          "type": "address"
        },
        {
          "indexed": true,
          "internalType": "uint256",
          "name": "tokenId",
          "type": "uint256"
        }
      ],
      "name": "Approval",
      "type": "event"
    },
    {
      "anonymous": false,
      "inputs": [
        {
          "indexed": true,
          "internalType": "address",
          "name": "owner",
          "type": "address"
        },
        {
          "indexed": true,
          "internalType": "address",
          "name": "operator",
          "type": "address"
        },
        {
          "indexed": false,
          "internalType": "bool",
          "name": "approved",
          "type": "bool"
        }
      ],
      "name": "ApprovalForAll",
      "type": "event"
    },
    {
      "anonymous": false,
      "inputs": [
        {
          "indexed": true,
          "internalType": "address",
          "name": "previousOwner",
          "type": "address"
        },
        {
          "indexed": true,
          "internalType": "address",
          "name": "newOwner",
          "type": "address"
        }
      ],
      "name": "OwnershipTransferred",
      "type": "event"
    },
    {
      "anonymous": false,
      "inputs": [
        {
          "indexed": true,
          "internalType": "address",
          "name": "from",
          "type": "address"
        },
        {
          "indexed": true,
          "internalType": "address",
          "name": "to",
          "type": "address"
        },
        {
          "indexed": true,
          "internalType": "uint256",
          "name": "tokenId",
          "type": "uint256"
        }
      ],
      "name": "Transfer",
      "type": "event"
    },
    {
      "inputs": [
        {
          "internalType": "address",
          "name": "to",
          "type": "address"
        },
        {
          "internalType": "uint256",
          "name": "tokenId",
          "type": "uint256"
        }
      ],
      "name": "approve",
      "outputs": [],
      "stateMutability": "nonpayable",
      "type": "function"
    },
    {
      "inputs": [
        {
          "internalType": "address",
          "name": "owner",
          "type": "address"
        }
      ],
      "name": "balanceOf",
      "outputs": [
        {
          "internalType": "uint256",
          "name": "",
          "type": "uint256"
        }
      ],
      "stateMutability": "view",
      "type": "function",
      "constant": true
    },
    {
      "inputs": [
        {
          "internalType": "uint256",
          "name": "tokenId",
          "type": "uint256"
        }
      ],
      "name": "getApproved",
      "outputs": [
        {
          "internalType": "address",
          "name": "",
          "type": "address"
        }
      ],
      "stateMutability": "view",
      "type": "function",
      "constant": true
    },
    {
      "inputs": [
        {
          "internalType": "address",
          "name": "owner",
          "type": "address"
        },
        {
          "internalType": "address",
          "name": "operator",
          "type": "address"
        }
      ],
      "name": "isApprovedForAll",
      "outputs": [
        {
          "internalType": "bool",
          "name": "",
          "type": "bool"
        }
      ],
      "stateMutability": "view",
      "type": "function",
      "constant": true
    },
    {
      "inputs": [],
      "name": "name",
      "outputs": [
        {
          "internalType": "string",
          "name": "",
          "type": "string"
        }
      ],
      "stateMutability": "view",
      "type": "function",
      "constant": true
    },
    {
      "inputs": [],
      "name": "owner",
      "outputs": [
        {
          "internalType": "address",
          "name": "",
          "type": "address"
        }
      ],
      "stateMutability": "view",
      "type": "function",
      "constant": true
    },
    {
      "inputs": [
        {
          "internalType": "uint256",
          "name": "tokenId",
          "type": "uint256"
        }
      ],
      "name": "ownerOf",
      "outputs": [
        {
          "internalType": "address",
          "name": "",
          "type": "address"
        }
      ],
      "stateMutability": "view",
      "type": "function",
      "constant": true
    },
    {
      "inputs": [],
      "name": "renounceOwnership",
      "outputs": [],
      "stateMutability": "nonpayable",
      "type": "function"
    },
    {
      "inputs": [
        {
          "internalType": "address",
          "name": "from",
          "type": "address"
        },
        {
          "internalType": "address",
          "name": "to",
          "type": "address"
        },
        {
          "internalType": "uint256",
          "name": "tokenId",
          "type": "uint256"
        }
      ],
      "name": "safeTransferFrom",
      "outputs": [],
      "stateMutability": "nonpayable",
      "type": "function"
    },
    {
      "inputs": [
        {
          "internalType": "address",
          "name": "from",
          "type": "address"
        },
        {
          "internalType": "address",
          "name": "to",
          "type": "address"
        },
        {
          "internalType": "uint256",
          "name": "tokenId",
          "type": "uint256"
        },
        {
          "internalType": "bytes",
          "name": "_data",
          "type": "bytes"
        }
      ],
      "name": "safeTransferFrom",
      "outputs": [],
      "stateMutability": "nonpayable",
      "type": "function"
    },
    {
      "inputs": [
        {
          "internalType": "address",
          "name": "operator",
          "type": "address"
        },
        {
          "internalType": "bool",
          "name": "approved",
          "type": "bool"
        }
      ],
      "name": "setApprovalForAll",
      "outputs": [],
      "stateMutability": "nonpayable",
      "type": "function"
    },
    {
      "inputs": [
        {
          "internalType": "bytes4",
          "name": "interfaceId",
          "type": "bytes4"
        }
      ],
      "name": "supportsInterface",
      "outputs": [
        {
          "internalType": "bool",
          "name": "",
          "type": "bool"
        }
      ],
      "stateMutability": "view",
      "type": "function",
      "constant": true
    },
    {
      "inputs": [],
      "name": "symbol",
      "outputs": [
        {
          "internalType": "string",
          "name": "",
          "type": "string"
        }
      ],
      "stateMutability": "view",
      "type": "function",
      "constant": true
    },
    {
      "inputs": [
        {
          "internalType": "uint256",
          "name": "index",
          "type": "uint256"
        }
      ],
      "name": "tokenByIndex",
      "outputs": [
        {
          "internalType": "uint256",
          "name": "",
          "type": "uint256"
        }
      ],
      "stateMutability": "view",
      "type": "function",
      "constant": true
    },
    {
      "inputs": [
        {
          "internalType": "address",
          "name": "owner",
          "type": "address"
        },
        {
          "internalType": "uint256",
          "name": "index",
          "type": "uint256"
        }
      ],
      "name": "tokenOfOwnerByIndex",
      "outputs": [
        {
          "internalType": "uint256",
          "name": "",
          "type": "uint256"
        }
      ],
      "stateMutability": "view",
      "type": "function",
      "constant": true
    },
    {
      "inputs": [],
      "name": "totalSupply",
      "outputs": [
        {
          "internalType": "uint256",
          "name": "",
          "type": "uint256"
        }
      ],
      "stateMutability": "view",
      "type": "function",
      "constant": true
    },
    {
      "inputs": [
        {
          "internalType": "address",
          "name": "from",
          "type": "address"
        },
        {
          "internalType": "address",
          "name": "to",
          "type": "address"
        },
        {
          "internalType": "uint256",
          "name": "tokenId",
          "type": "uint256"
        }
      ],
      "name": "transferFrom",
      "outputs": [],
      "stateMutability": "nonpayable",
      "type": "function"
    },
    {
      "inputs": [
        {
          "internalType": "address",
          "name": "newOwner",
          "type": "address"
        }
      ],
      "name": "transferOwnership",
      "outputs": [],
      "stateMutability": "nonpayable",
      "type": "function"
    },
    {
      "inputs": [
        {
          "internalType": "string",
          "name": "baseURI_",
          "type": "string"
        }
      ],
      "name": "setBaseURI",
      "outputs": [],
      "stateMutability": "nonpayable",
      "type": "function"
    },
    {
      "inputs": [
        {
          "internalType": "uint256",
          "name": "tokenId",
          "type": "uint256"
        }
      ],
      "name": "tokenURI",
      "outputs": [
        {
          "internalType": "string",
          "name": "",
          "type": "string"
        }
      ],
      "stateMutability": "view",
      "type": "function",
      "constant": true
    },
    {
      "inputs": [
        {
          "internalType": "address",
          "name": "_to",
          "type": "address"
        },
        {
          "internalType": "uint256",
          "name": "_tokenId",
          "type": "uint256"
        },
        {
          "internalType": "string",
          "name": "tokenURI_",
          "type": "string"
        }
      ],
      "name": "mintToken",
      "outputs": [],
      "stateMutability": "nonpayable",
      "type": "function"
    },
    {
      "inputs": [
        {
          "internalType": "uint256",
          "name": "tokenId",
          "type": "uint256"
        }
      ],
      "name": "burn",
      "outputs": [],
      "stateMutability": "nonpayable",
      "type": "function"
    },
    {
      "inputs": [],
      "name": "tokensOfContract",
      "outputs": [
        {
          "internalType": "uint256[]",
          "name": "contractTokens",
          "type": "uint256[]"
        }
      ],
      "stateMutability": "view",
      "type": "function",
      "constant": true
    },
    {
      "inputs": [],
      "name": "getAllAddressesOfOwners",
      "outputs": [
        {
          "internalType": "address[]",
          "name": "ownerAddresses",
          "type": "address[]"
        }
      ],
      "stateMutability": "view",
      "type": "function",
      "constant": true
    }
  ],
  "bytecode": "0x60806040523480156200001157600080fd5b50604051620026343803806200263483398101604081905262000034916200023f565b81816200005c6200004d64010000000062000092810204565b64010000000062000096810204565b815162000071906001906020850190620000e6565b50805162000087906002906020840190620000e6565b50505050506200032b565b3390565b60008054600160a060020a03838116600160a060020a0319831681178455604051919092169283917f8be0079c531659141344cd1fd0a4f28419497f9722a3daafe3b4186f6b6457e09190a35050565b828054620000f490620002a6565b90600052602060002090601f01602090048101928262000118576000855562000163565b82601f106200013357805160ff191683800117855562000163565b8280016001018555821562000163579182015b828111156200016357825182559160200191906001019062000146565b506200017192915062000175565b5090565b5b8082111562000171576000815560010162000176565b600082601f8301126200019d578081fd5b81516001604060020a0380821115620001ba57620001ba620002fc565b604051601f8301601f19908116603f01168101908282118183101715620001e557620001e5620002fc565b8160405283815260209250868385880101111562000201578485fd5b8491505b8382101562000224578582018301518183018401529082019062000205565b838211156200023557848385830101525b9695505050505050565b6000806040838503121562000252578182fd5b82516001604060020a038082111562000269578384fd5b62000277868387016200018c565b935060208501519150808211156200028d578283fd5b506200029c858286016200018c565b9150509250929050565b600281046001821680620002bb57607f821691505b60208210811415620002f6577f4e487b7100000000000000000000000000000000000000000000000000000000600052602260045260246000fd5b50919050565b7f4e487b7100000000000000000000000000000000000000000000000000000000600052604160045260246000fd5b6122f9806200033b6000396000f3fe608060405234801561001057600080fd5b5060043610610175576000357c0100000000000000000000000000000000000000000000000000000000900480635e9cf1cf116100e0578063a22cb46511610099578063a22cb465146102ec578063b88d4fde146102ff578063c87b56dd14610312578063e985e9c514610325578063f2fde38b14610361578063f76e8ba91461037457610175565b80635e9cf1cf146102905780636352211e146102a557806370a08231146102b8578063715018a6146102cb5780638da5cb5b146102d357806395d89b41146102e457610175565b80632f745c59116101325780632f745c591461021c57806342842e0e1461022f57806342966c68146102425780634f6ccce71461025557806355f804b31461026857806359e4181e1461027b57610175565b806301ffc9a71461017a57806306fdde03146101a2578063081812fc146101b7578063095ea7b3146101e257806318160ddd146101f757806323b872dd14610209575b600080fd5b61018d610188366004611ee5565b610387565b60405190151581526020015b60405180910390f35b6101aa6103cd565b6040516101999190612084565b6101ca6101c5366004611f50565b61045f565b604051600160a060020a039091168152602001610199565b6101f56101f0366004611e67565b61050d565b005b6009545b604051908152602001610199565b6101f5610217366004611d79565b610645565b6101fb61022a366004611e67565b610679565b6101f561023d366004611d79565b610724565b6101f5610250366004611f50565b61073f565b6101fb610263366004611f50565b610778565b6101f5610276366004611f1d565b610830565b610283610874565b6040516101999190611fff565b610298610955565b604051610199919061204c565b6101ca6102b3366004611f50565b610a17565b6101fb6102c6366004611d2d565b610aa5565b6101f5610b42565b600054600160a060020a03166101ca565b6101aa610b7b565b6101f56102fa366004611e2d565b610b8a565b6101f561030d366004611db4565b610c5f565b6101aa610320366004611f50565b610c9a565b61018d610333366004611d47565b600160a060020a03918216600090815260066020908152604080832093909416825291909152205460ff1690565b6101f561036f366004611d2d565b610e46565b6101f5610382366004611e90565b610efb565b6000600160e060020a031982167f780e9d630000000000000000000000000000000000000000000000000000000014806103c557506103c582610f3c565b90505b919050565b6060600180546103dc906121f5565b80601f0160208091040260200160405190810160405280929190818152602001828054610408906121f5565b80156104555780601f1061042a57610100808354040283529160200191610455565b820191906000526020600020905b81548152906001019060200180831161043857829003601f168201915b5050505050905090565b600081815260036020526040812054600160a060020a03166104f15760405160e560020a62461bcd02815260206004820152602c60248201527f4552433732313a20617070726f76656420717565727920666f72206e6f6e657860448201527f697374656e7420746f6b656e000000000000000000000000000000000000000060648201526084015b60405180910390fd5b50600090815260056020526040902054600160a060020a031690565b600061051882610a17565b905080600160a060020a031683600160a060020a031614156105a55760405160e560020a62461bcd02815260206004820152602160248201527f4552433732313a20617070726f76616c20746f2063757272656e74206f776e6560448201527f720000000000000000000000000000000000000000000000000000000000000060648201526084016104e8565b33600160a060020a03821614806105c157506105c18133610333565b6106365760405160e560020a62461bcd02815260206004820152603860248201527f4552433732313a20617070726f76652063616c6c6572206973206e6f74206f7760448201527f6e6572206e6f7220617070726f76656420666f7220616c6c000000000000000060648201526084016104e8565b6106408383610fd7565b505050565b61064f3382611052565b61066e5760405160e560020a62461bcd0281526004016104e890612129565b61064083838361115d565b600061068483610aa5565b82106106fb5760405160e560020a62461bcd02815260206004820152602b60248201527f455243373231456e756d657261626c653a206f776e657220696e646578206f7560448201527f74206f6620626f756e647300000000000000000000000000000000000000000060648201526084016104e8565b50600160a060020a03919091166000908152600760209081526040808320938352929052205490565b61064083838360405180602001604052806000815250610c5f565b600054600160a060020a0316331461076c5760405160e560020a62461bcd0281526004016104e8906120f4565b61077581611348565b50565b600061078360095490565b82106107fa5760405160e560020a62461bcd02815260206004820152602c60248201527f455243373231456e756d657261626c653a20676c6f62616c20696e646578206f60448201527f7574206f6620626f756e6473000000000000000000000000000000000000000060648201526084016104e8565b6009828154811061081e5760e060020a634e487b7102600052603260045260246000fd5b90600052602060002001549050919050565b600054600160a060020a0316331461085d5760405160e560020a62461bcd0281526004016104e8906120f4565b805161087090600c906020840190611be1565b5050565b60606000610880610955565b90506000815167ffffffffffffffff8111156108af5760e060020a634e487b7102600052604160045260246000fd5b6040519080825280602002602001820160405280156108d8578160200160208202803683370190505b509050600060015b8351811161094c576108f181610a17565b8383815181106109145760e060020a634e487b7102600052603260045260246000fd5b600160a060020a03909216602092830291909101909101528161093681612233565b925050808061094490612233565b9150506108e0565b50909250505090565b6060600061096260095490565b905060008167ffffffffffffffff8111156109905760e060020a634e487b7102600052604160045260246000fd5b6040519080825280602002602001820160405280156109b9578160200160208202803683370190505b50905060005b82811015610a10576109d081610778565b8282815181106109f35760e060020a634e487b7102600052603260045260246000fd5b602090810291909101015280610a0881612233565b9150506109bf565b5091505090565b600081815260036020526040812054600160a060020a0316806103c55760405160e560020a62461bcd02815260206004820152602960248201527f4552433732313a206f776e657220717565727920666f72206e6f6e657869737460448201527f656e7420746f6b656e000000000000000000000000000000000000000000000060648201526084016104e8565b6000600160a060020a038216610b265760405160e560020a62461bcd02815260206004820152602a60248201527f4552433732313a2062616c616e636520717565727920666f7220746865207a6560448201527f726f20616464726573730000000000000000000000000000000000000000000060648201526084016104e8565b50600160a060020a031660009081526004602052604090205490565b600054600160a060020a03163314610b6f5760405160e560020a62461bcd0281526004016104e8906120f4565b610b7960006113fc565b565b6060600280546103dc906121f5565b600160a060020a038216331415610be65760405160e560020a62461bcd02815260206004820152601960248201527f4552433732313a20617070726f766520746f2063616c6c65720000000000000060448201526064016104e8565b336000818152600660209081526040808320600160a060020a0387168085529252909120805460ff191684151517905590600160a060020a03167f17307eab39ab6107e8899845ad3d59bd9653f200f220920489ca2b5937696c3183604051610c53911515815260200190565b60405180910390a35050565b610c693383611052565b610c885760405160e560020a62461bcd0281526004016104e890612129565b610c9484848484611459565b50505050565b600081815260036020526040902054606090600160a060020a0316610d2a5760405160e560020a62461bcd02815260206004820152602f60248201527f4552433732314d657461646174613a2055524920717565727920666f72206e6f60448201527f6e6578697374656e7420746f6b656e000000000000000000000000000000000060648201526084016104e8565b6000828152600b602052604081208054610d43906121f5565b80601f0160208091040260200160405190810160405280929190818152602001828054610d6f906121f5565b8015610dbc5780601f10610d9157610100808354040283529160200191610dbc565b820191906000526020600020905b815481529060010190602001808311610d9f57829003601f168201915b505050505090506000610dcd61148f565b9050805160001415610de1575090506103c8565b815115610e13578082604051602001610dfb929190611f94565b604051602081830303815290604052925050506103c8565b80610e1d8561149e565b604051602001610e2e929190611f94565b60405160208183030381529060405292505050919050565b600054600160a060020a03163314610e735760405160e560020a62461bcd0281526004016104e8906120f4565b600160a060020a038116610ef25760405160e560020a62461bcd02815260206004820152602660248201527f4f776e61626c653a206e6577206f776e657220697320746865207a65726f206160448201527f646472657373000000000000000000000000000000000000000000000000000060648201526084016104e8565b610775816113fc565b600054600160a060020a03163314610f285760405160e560020a62461bcd0281526004016104e8906120f4565b610f328383611612565b6106408282611773565b6000600160e060020a031982167f80ac58cd000000000000000000000000000000000000000000000000000000001480610f9f5750600160e060020a031982167f5b5e139f00000000000000000000000000000000000000000000000000000000145b806103c557507f01ffc9a700000000000000000000000000000000000000000000000000000000600160e060020a03198316146103c5565b6000818152600560205260409020805473ffffffffffffffffffffffffffffffffffffffff1916600160a060020a038416908117909155819061101982610a17565b600160a060020a03167f8c5be1e5ebec7d5bd14f71427d1e84f3dd0314c0f7b2291e5b200ac8c7c3b92560405160405180910390a45050565b600081815260036020526040812054600160a060020a03166110df5760405160e560020a62461bcd02815260206004820152602c60248201527f4552433732313a206f70657261746f7220717565727920666f72206e6f6e657860448201527f697374656e7420746f6b656e000000000000000000000000000000000000000060648201526084016104e8565b60006110ea83610a17565b905080600160a060020a031684600160a060020a03161480611125575083600160a060020a031661111a8461045f565b600160a060020a0316145b806111555750600160a060020a0380821660009081526006602090815260408083209388168352929052205460ff165b949350505050565b82600160a060020a031661117082610a17565b600160a060020a0316146111ef5760405160e560020a62461bcd02815260206004820152602960248201527f4552433732313a207472616e73666572206f6620746f6b656e2074686174206960448201527f73206e6f74206f776e000000000000000000000000000000000000000000000060648201526084016104e8565b600160a060020a03821661126d5760405160e560020a62461bcd028152602060048201526024808201527f4552433732313a207472616e7366657220746f20746865207a65726f2061646460448201527f726573730000000000000000000000000000000000000000000000000000000060648201526084016104e8565b61127883838361181f565b611283600082610fd7565b600160a060020a03831660009081526004602052604081208054600192906112ac9084906121b2565b9091555050600160a060020a03821660009081526004602052604081208054600192906112da908490612186565b9091555050600081815260036020526040808220805473ffffffffffffffffffffffffffffffffffffffff1916600160a060020a0386811691821790925591518493918716917fddf252ad1be2c89b69c2b068fc378daa952ba7f163c4a11628f55a4df523b3ef91a4505050565b600061135382610a17565b90506113618160008461181f565b61136c600083610fd7565b600160a060020a03811660009081526004602052604081208054600192906113959084906121b2565b9091555050600082815260036020526040808220805473ffffffffffffffffffffffffffffffffffffffff1916905551839190600160a060020a038416907fddf252ad1be2c89b69c2b068fc378daa952ba7f163c4a11628f55a4df523b3ef908390a45050565b60008054600160a060020a0383811673ffffffffffffffffffffffffffffffffffffffff19831681178455604051919092169283917f8be0079c531659141344cd1fd0a4f28419497f9722a3daafe3b4186f6b6457e09190a35050565b61146484848461115d565b611470848484846118dc565b610c945760405160e560020a62461bcd0281526004016104e890612097565b6060600c80546103dc906121f5565b6060816114df575060408051808201909152600181527f300000000000000000000000000000000000000000000000000000000000000060208201526103c8565b8160005b811561150957806114f381612233565b91506115029050600a8361219e565b91506114e3565b60008167ffffffffffffffff8111156115355760e060020a634e487b7102600052604160045260246000fd5b6040519080825280601f01601f19166020018201604052801561155f576020820181803683370190505b5090505b8415611155576115746001836121b2565b9150611581600a8661224e565b61158c906030612186565b7f0100000000000000000000000000000000000000000000000000000000000000028183815181106115d15760e060020a634e487b7102600052603260045260246000fd5b60200101907effffffffffffffffffffffffffffffffffffffffffffffffffffffffffffff1916908160001a90535061160b600a8661219e565b9450611563565b600160a060020a03821661166b5760405160e560020a62461bcd02815260206004820181905260248201527f4552433732313a206d696e7420746f20746865207a65726f206164647265737360448201526064016104e8565b600081815260036020526040902054600160a060020a0316156116d35760405160e560020a62461bcd02815260206004820152601c60248201527f4552433732313a20746f6b656e20616c7265616479206d696e7465640000000060448201526064016104e8565b6116df6000838361181f565b600160a060020a0382166000908152600460205260408120805460019290611708908490612186565b9091555050600081815260036020526040808220805473ffffffffffffffffffffffffffffffffffffffff1916600160a060020a03861690811790915590518392907fddf252ad1be2c89b69c2b068fc378daa952ba7f163c4a11628f55a4df523b3ef908290a45050565b600082815260036020526040902054600160a060020a03166118005760405160e560020a62461bcd02815260206004820152602c60248201527f4552433732314d657461646174613a2055524920736574206f66206e6f6e657860448201527f697374656e7420746f6b656e000000000000000000000000000000000000000060648201526084016104e8565b6000828152600b60209081526040909120825161064092840190611be1565b600160a060020a03831661187a5761187581600980546000838152600a60205260408120829055600182018355919091527f6e1540171b6c0c960b71a7020d9f60077f6af931a8bbf590da0223dacf75c7af0155565b61189d565b81600160a060020a031683600160a060020a03161461189d5761189d8382611a1e565b600160a060020a0382166118b9576118b481611abb565b610640565b82600160a060020a031682600160a060020a031614610640576106408282611b9d565b6000600160a060020a0384163b15611a13576040517f150b7a02000000000000000000000000000000000000000000000000000000008152600160a060020a0385169063150b7a0290611939903390899088908890600401611fc3565b602060405180830381600087803b15801561195357600080fd5b505af1925050508015611983575060408051601f3d908101601f1916820190925261198091810190611f01565b60015b6119e0573d8080156119b1576040519150601f19603f3d011682016040523d82523d6000602084013e6119b6565b606091505b5080516119d85760405160e560020a62461bcd0281526004016104e890612097565b805181602001fd5b600160e060020a0319167f150b7a0200000000000000000000000000000000000000000000000000000000149050611155565b506001949350505050565b60006001611a2b84610aa5565b611a3591906121b2565b600083815260086020526040902054909150808214611a8857600160a060020a03841660009081526007602090815260408083208584528252808320548484528184208190558352600890915290208190555b506000918252600860209081526040808420849055600160a060020a039094168352600781528383209183525290812055565b600954600090611acd906001906121b2565b6000838152600a602052604081205460098054939450909284908110611b065760e060020a634e487b7102600052603260045260246000fd5b906000526020600020015490508060098381548110611b385760e060020a634e487b7102600052603260045260246000fd5b6000918252602080832090910192909255828152600a90915260408082208490558582528120556009805480611b815760e060020a634e487b7102600052603160045260246000fd5b6001900381819060005260206000200160009055905550505050565b6000611ba883610aa5565b600160a060020a039093166000908152600760209081526040808320868452825280832085905593825260089052919091209190915550565b828054611bed906121f5565b90600052602060002090601f016020900481019282611c0f5760008555611c55565b82601f10611c2857805160ff1916838001178555611c55565b82800160010185558215611c55579182015b82811115611c55578251825591602001919060010190611c3a565b50611c61929150611c65565b5090565b5b80821115611c615760008155600101611c66565b600067ffffffffffffffff80841115611c9557611c95612294565b604051601f8501601f19908116603f01168101908282118183101715611cbd57611cbd612294565b81604052809350858152868686011115611cd657600080fd5b858560208301376000602087830101525050509392505050565b8035600160a060020a03811681146103c857600080fd5b600082601f830112611d17578081fd5b611d2683833560208501611c7a565b9392505050565b600060208284031215611d3e578081fd5b611d2682611cf0565b60008060408385031215611d59578081fd5b611d6283611cf0565b9150611d7060208401611cf0565b90509250929050565b600080600060608486031215611d8d578081fd5b611d9684611cf0565b9250611da460208501611cf0565b9150604084013590509250925092565b60008060008060808587031215611dc9578081fd5b611dd285611cf0565b9350611de060208601611cf0565b925060408501359150606085013567ffffffffffffffff811115611e02578182fd5b8501601f81018713611e12578182fd5b611e2187823560208401611c7a565b91505092959194509250565b60008060408385031215611e3f578182fd5b611e4883611cf0565b915060208301358015158114611e5c578182fd5b809150509250929050565b60008060408385031215611e79578182fd5b611e8283611cf0565b946020939093013593505050565b600080600060608486031215611ea4578283fd5b611ead84611cf0565b925060208401359150604084013567ffffffffffffffff811115611ecf578182fd5b611edb86828701611d07565b9150509250925092565b600060208284031215611ef6578081fd5b8135611d26816122ad565b600060208284031215611f12578081fd5b8151611d26816122ad565b600060208284031215611f2e578081fd5b813567ffffffffffffffff811115611f44578182fd5b61115584828501611d07565b600060208284031215611f61578081fd5b5035919050565b60008151808452611f808160208601602086016121c9565b601f01601f19169290920160200192915050565b60008351611fa68184602088016121c9565b835190830190611fba8183602088016121c9565b01949350505050565b6000600160a060020a03808716835280861660208401525083604083015260806060830152611ff56080830184611f68565b9695505050505050565b6020808252825182820181905260009190848201906040850190845b81811015612040578351600160a060020a03168352928401929184019160010161201b565b50909695505050505050565b6020808252825182820181905260009190848201906040850190845b8181101561204057835183529284019291840191600101612068565b600060208252611d266020830184611f68565b60208082526032908201527f4552433732313a207472616e7366657220746f206e6f6e20455243373231526560408201527f63656976657220696d706c656d656e7465720000000000000000000000000000606082015260800190565b6020808252818101527f4f776e61626c653a2063616c6c6572206973206e6f7420746865206f776e6572604082015260600190565b60208082526031908201527f4552433732313a207472616e736665722063616c6c6572206973206e6f74206f60408201527f776e6572206e6f7220617070726f766564000000000000000000000000000000606082015260800190565b6000821982111561219957612199612262565b500190565b6000826121ad576121ad61227b565b500490565b6000828210156121c4576121c4612262565b500390565b60005b838110156121e45781810151838201526020016121cc565b83811115610c945750506000910152565b60028104600182168061220957607f821691505b6020821081141561222d5760e060020a634e487b7102600052602260045260246000fd5b50919050565b600060001982141561224757612247612262565b5060010190565b60008261225d5761225d61227b565b500690565b60e060020a634e487b7102600052601160045260246000fd5b60e060020a634e487b7102600052601260045260246000fd5b60e060020a634e487b7102600052604160045260246000fd5b600160e060020a03198116811461077557600080fdfea2646970667358221220cb68b6f06d8d42c78e26e22fdde8b87311cb0cd6f19c2e218220067d0950bd9564736f6c63430008030033",
  "immutableReferences": {},
  "source": "// SPDX-License-Identifier: MIT\npragma solidity ^0.8.3;\n\nimport \"../node_modules/@openzeppelin/contracts/token/ERC721/ERC721.sol\";\nimport \"../node_modules/@openzeppelin/contracts/token/ERC721/extensions/ERC721Burnable.sol\";\nimport \"../node_modules/@openzeppelin/contracts/token/ERC721/extensions/ERC721Enumerable.sol\";\nimport \"../node_modules/@openzeppelin/contracts/access/AccessControl.sol\";\nimport \"../node_modules/@openzeppelin/contracts/access/Ownable.sol\";\n\n\ncontract EnergyToken is Ownable, ERC721Enumerable {\n    constructor(string memory _name, string memory _symbol)\n        ERC721(_name, _symbol)\n    {}\n\n    using Strings for uint256;\n    \n    // Optional mapping for token URIs\n    mapping (uint256 => string) private _tokenURIs;\n\n    // Base URI\n    string private _baseURIextended;\n    \n    function setBaseURI(string memory baseURI_) external onlyOwner() {\n        _baseURIextended = baseURI_;\n    }\n    \n    function _setTokenURI(uint256 tokenId, string memory _tokenURI) internal virtual {\n        require(_exists(tokenId), \"ERC721Metadata: URI set of nonexistent token\");\n        _tokenURIs[tokenId] = _tokenURI;\n    }\n    \n    function _baseURI() internal view virtual override returns (string memory) {\n        return _baseURIextended;\n    }\n    \n    function tokenURI(uint256 tokenId) public view virtual override returns (string memory) {\n        require(_exists(tokenId), \"ERC721Metadata: URI query for nonexistent token\");\n\n        string memory _tokenURI = _tokenURIs[tokenId];\n        string memory base = _baseURI();\n        \n        // If there is no base URI, return the token URI.\n        if (bytes(base).length == 0) {\n            return _tokenURI;\n        }\n        // If both are set, concatenate the baseURI and tokenURI (via abi.encodePacked).\n        if (bytes(_tokenURI).length > 0) {\n            return string(abi.encodePacked(base, _tokenURI));\n        }\n        // If there is a baseURI but no tokenURI, concatenate the tokenID to the baseURI.\n        return string(abi.encodePacked(base, tokenId.toString()));\n    }\n\n    function mintToken(\n        address _to,\n        uint256 _tokenId,\n        string memory tokenURI_\n    ) public onlyOwner(){\n        _mint(_to, _tokenId);\n        _setTokenURI(_tokenId, tokenURI_);\n    }\n\n    function burn(\n        uint256 tokenId\n    ) public onlyOwner() {\n        _burn(tokenId);\n    }\n\n    function tokensOfContract() public view returns(uint256[] memory contractTokens) {\n        uint256 totalTokens = totalSupply();\n        uint256[] memory result = new uint256[](totalTokens);\n        \n        // We count on the fact that all tokens have IDs starting at 0 and increasing\n        // sequentially up to the total Token count.\n        for (uint256 tokenId = 0; tokenId < totalTokens; tokenId++) {\n            result[tokenId] = super.tokenByIndex(tokenId);\n        }\n\n        return result;\n    }\n\n    function getAllAddressesOfOwners() public view returns(address[] memory ownerAddresses) {\n        uint256[] memory tokens = tokensOfContract();\n        address[] memory result = new address[](tokens.length);\n\n        uint256 resultIndex = 0;\n\n        for(uint256 tokenId = 1; tokenId <= tokens.length; tokenId++){\n            result[resultIndex] = ownerOf(tokenId);\n            resultIndex++;\n        }\n\n        return result;\n    }\n}",
  "sourcePath": "/Users/jasontjauw/Desktop/EnergyToken/EnergyToken/pkg/EnergyToken/contracts/EnergyToken.sol",
  "compiler": {
    "name": "solc",
    "version": "0.8.3+commit.8d00100c.Linux.g++"
  },
  "schemaVersion": "3.4.1",
  "updatedAt": "2021-12-09T15:48:55.933Z",
  "networkType": "ethereum",
  "devdoc": {
    "kind": "dev",
    "methods": {
      "approve(address,uint256)": {
        "details": "See {IERC721-approve}."
      },
      "balanceOf(address)": {
        "details": "See {IERC721-balanceOf}."
      },
      "getApproved(uint256)": {
        "details": "See {IERC721-getApproved}."
      },
      "isApprovedForAll(address,address)": {
        "details": "See {IERC721-isApprovedForAll}."
      },
      "name()": {
        "details": "See {IERC721Metadata-name}."
      },
      "owner()": {
        "details": "Returns the address of the current owner."
      },
      "ownerOf(uint256)": {
        "details": "See {IERC721-ownerOf}."
      },
      "renounceOwnership()": {
        "details": "Leaves the contract without owner. It will not be possible to call `onlyOwner` functions anymore. Can only be called by the current owner. NOTE: Renouncing ownership will leave the contract without an owner, thereby removing any functionality that is only available to the owner."
      },
      "safeTransferFrom(address,address,uint256)": {
        "details": "See {IERC721-safeTransferFrom}."
      },
      "safeTransferFrom(address,address,uint256,bytes)": {
        "details": "See {IERC721-safeTransferFrom}."
      },
      "setApprovalForAll(address,bool)": {
        "details": "See {IERC721-setApprovalForAll}."
      },
      "supportsInterface(bytes4)": {
        "details": "See {IERC165-supportsInterface}."
      },
      "symbol()": {
        "details": "See {IERC721Metadata-symbol}."
      },
      "tokenByIndex(uint256)": {
        "details": "See {IERC721Enumerable-tokenByIndex}."
      },
      "tokenOfOwnerByIndex(address,uint256)": {
        "details": "See {IERC721Enumerable-tokenOfOwnerByIndex}."
      },
      "tokenURI(uint256)": {
        "details": "See {IERC721Metadata-tokenURI}."
      },
      "totalSupply()": {
        "details": "See {IERC721Enumerable-totalSupply}."
      },
      "transferFrom(address,address,uint256)": {
        "details": "See {IERC721-transferFrom}."
      },
      "transferOwnership(address)": {
        "details": "Transfers ownership of the contract to a new account (`newOwner`). Can only be called by the current owner."
      }
    },
    "version": 1
  },
  "userdoc": {
    "kind": "user",
    "methods": {},
    "version": 1
  }
}